:100000000C942A000C9434000C9434000C943400AA
:100010000C9434000C9434000C9434000C94340090
:100020000C9434000C9434000C9434000C94340080
:100030000C9434000C9434000C9434000C94340070
:100040000C9434000C9434000C9434000C94340060
:100050000C94340011241FBECFE5D8E0DEBFCDBF25
:100060000E947E000C9495000C9400009F7090BD3F
:1000700089B9089586E880BD08958AB188618AB9F2
:1000800008958AB1877E8AB908958BB185FB882748
:1000900080F991E0892708958BB18095881F882782
:1000A000881F08955D9BFECF8CB90895FC012191B6
:1000B000CF01222321F05D9BFECF2CB9F7CF08950D
:1000C000282FFC018E2F821B861728F45D9BFECF04
:1000D00081918CB9F7CF08955F9BFECF2CB1FC01C5
:1000E00020830895282FFC018E2F821B861728F469
:1000F0005F9BFECF8CB18193F7CF0895CF93DF93B1
:100100001F92CDB7DEB78FEF84BB80E090E00E94F6
:1001100036000E943A000E943D00CE0101960E94E6
:0E0120006C0089810E945200F8CFF894FFCF46
:00000001FF
