:100000000C942A000C9434000C9434000C943400AA
:100010000C9434000C9434000C9434000C94340090
:100020000C9434000C9434000C9434000C94340080
:100030000C9434000C9434000C9434000C94340070
:100040000C9434000C9434000C9434000C94340060
:100050000C94340011241FBECFE5D8E0DEBFCDBF25
:100060000E9491000C94C6000C940000CF93DF9383
:10007000DB01EA01FC0120E488943FB70D90199060
:100080003FBF011C3FB701922A95C1F71124DF91B0
:10009000CF9108959F7090BD89B9089586E880BD7D
:1000A00008958AB188618AB908958AB1877E8AB92C
:1000B00008958BB185FB882780F991E08927089501
:1000C0008BB18095881F8827881F08955D9BFECF80
:1000D0008CB90895FC019191992321F05D9BFECF8D
:1000E0009CB9F9CF0895282FFC018E2F821B86170B
:1000F00028F45D9BFECF81918CB9F7CF08955F9B6B
:10010000FECF2CB1FC0120830895282FFC018E2FF7
:10011000821B861728F45F9BFECF8CB18193F7CFAB
:100120000895CF93DF93CDB7DEB7C05CD1090FB68A
:10013000F894DEBF0FBECDBF8FEF84BB80E090E0B0
:100140000E944A000E944E000E945100FE0131961A
:100150008E010F5B1F4F7F011192E017F107E1F74E
:1001600060E4CE018F579F4F0E94850060E4C80174
:100170000E948500A801BE016F577F4FC7010E94F2
:10018000360060E4C7010E947300EACFF894FFCF05
:00000001FF
