:100000000C942A000C943F000C943F000C943F0089
:100010000C943F000C943F000C943F000C943F0064
:100020000C943F000C943F000C943F000C943F0054
:100030000C943F000C943F000C943F000C943F0044
:100040000C943F000C943F000C943F000C943F0034
:100050000C943F0011241FBECFE5D8E0DEBFCDBF1A
:1000600010E0A0E6B0E0E0E4F1E002C005900D92FF
:10007000AE36B107D9F70E9488000C949E000C940C
:1000800000009F7090BD89B9089586E880BD0895ED
:100090008AB188618AB908958AB1877E8AB908953C
:1000A0008BB185FB882780F991E0892708958BB172
:1000B0008095881F8827881F08955D9BFECF8CB987
:1000C0000895FC019191992321F05D9BFECF9CB98D
:1000D000F9CF0895282FFC018E2F821B861728F454
:1000E0005D9BFECF81918CB9F7CF08955F9BFECFCA
:1000F0002CB1FC0120830895282FFC018E2F821B38
:10010000861728F45F9BFECF8CB18193F7CF0895BB
:1001100080E090E00E9441000E9445000E9448005B
:1001200080E690E00E9461002FE38DE093E0215093
:1001300080409040E1F700C00000F2CFF894FFCF7C
:0E01400048656C6C6F20576F726C64210A006A
:00000001FF
